{
  "_format": "hh3-artifact-1",
  "contractName": "MessageIntegrity",
  "sourceName": "contracts/MessageIntegrity.sol",
  "abi": [
    {
      "inputs": [],
      "name": "AlreadyRecorded",
      "type": "error"
    },
    {
      "inputs": [],
      "name": "ECDSAInvalidSignature",
      "type": "error"
    },
    {
      "inputs": [
        {
          "internalType": "uint256",
          "name": "length",
          "type": "uint256"
        }
      ],
      "name": "ECDSAInvalidSignatureLength",
      "type": "error"
    },
    {
      "inputs": [
        {
          "internalType": "bytes32",
          "name": "s",
          "type": "bytes32"
        }
      ],
      "name": "ECDSAInvalidSignatureS",
      "type": "error"
    },
    {
      "inputs": [],
      "name": "EmptyHash",
      "type": "error"
    },
    {
      "inputs": [],
      "name": "EmptySignature",
      "type": "error"
    },
    {
      "inputs": [],
      "name": "FutureTimestamp",
      "type": "error"
    },
    {
      "inputs": [],
      "name": "InvalidTimestamp",
      "type": "error"
    },
    {
      "inputs": [],
      "name": "SignerMismatch",
      "type": "error"
    },
    {
      "anonymous": false,
      "inputs": [
        {
          "indexed": true,
          "internalType": "bytes32",
          "name": "hash",
          "type": "bytes32"
        },
        {
          "indexed": true,
          "internalType": "address",
          "name": "recorder",
          "type": "address"
        },
        {
          "indexed": false,
          "internalType": "uint64",
          "name": "timestamp",
          "type": "uint64"
        }
      ],
      "name": "DigestRecorded",
      "type": "event"
    },
    {
      "inputs": [
        {
          "internalType": "bytes32",
          "name": "hash",
          "type": "bytes32"
        }
      ],
      "name": "getRecord",
      "outputs": [
        {
          "internalType": "address",
          "name": "recorder",
          "type": "address"
        },
        {
          "internalType": "uint64",
          "name": "timestamp",
          "type": "uint64"
        }
      ],
      "stateMutability": "view",
      "type": "function"
    },
    {
      "inputs": [
        {
          "internalType": "bytes32",
          "name": "hash",
          "type": "bytes32"
        },
        {
          "internalType": "bytes",
          "name": "signature",
          "type": "bytes"
        },
        {
          "internalType": "uint64",
          "name": "timestamp",
          "type": "uint64"
        }
      ],
      "name": "recordDigest",
      "outputs": [],
      "stateMutability": "nonpayable",
      "type": "function"
    }
  ],
  "bytecode": "0x608060405234801561000f575f80fd5b50610a898061001d5f395ff3fe608060405234801561000f575f80fd5b5060043610610034575f3560e01c8063146e62a014610038578063213681cd14610054575b5f80fd5b610052600480360381019061004d9190610845565b610085565b005b61006e600480360381019061006991906108b6565b6103b9565b60405161007c92919061092f565b60405180910390f35b5f801b84036100c0576040517f70df377c00000000000000000000000000000000000000000000000000000000815260040160405180910390fd5b5f83839050036100fc576040517fac241e1100000000000000000000000000000000000000000000000000000000815260040160405180910390fd5b5f8167ffffffffffffffff160361013f576040517fb7d0949700000000000000000000000000000000000000000000000000000000815260040160405180910390fd5b428167ffffffffffffffff161115610183576040517f0ff02cef00000000000000000000000000000000000000000000000000000000815260040160405180910390fd5b5f805f8681526020019081526020015f205f0160149054906101000a900467ffffffffffffffff1667ffffffffffffffff16146101ec576040517f103b4afe00000000000000000000000000000000000000000000000000000000815260040160405180910390fd5b5f6102426101f986610471565b85858080601f0160208091040260200160405190810160405280939291908181526020018383808284375f81840152601f19601f820116905080830192505050505050506104a4565b90503373ffffffffffffffffffffffffffffffffffffffff168173ffffffffffffffffffffffffffffffffffffffff16146102a9576040517f10c74b0300000000000000000000000000000000000000000000000000000000815260040160405180910390fd5b60405180604001604052803373ffffffffffffffffffffffffffffffffffffffff1681526020018367ffffffffffffffff168152505f808781526020019081526020015f205f820151815f015f6101000a81548173ffffffffffffffffffffffffffffffffffffffff021916908373ffffffffffffffffffffffffffffffffffffffff1602179055506020820151815f0160146101000a81548167ffffffffffffffff021916908367ffffffffffffffff1602179055509050503373ffffffffffffffffffffffffffffffffffffffff16857fd57f32dc42f3f77b3986a4d2d23d3bce00da3128985fc6ab50061f177f35cf3d846040516103aa9190610956565b60405180910390a35050505050565b5f805f805f8581526020019081526020015f206040518060400160405290815f82015f9054906101000a900473ffffffffffffffffffffffffffffffffffffffff1673ffffffffffffffffffffffffffffffffffffffff1673ffffffffffffffffffffffffffffffffffffffff1681526020015f820160149054906101000a900467ffffffffffffffff1667ffffffffffffffff1667ffffffffffffffff16815250509050805f015181602001519250925050915091565b5f7f19457468657265756d205369676e6564204d6573736167653a0a3332000000005f5281601c52603c5f209050919050565b5f805f806104b286866104ce565b9250925092506104c28282610523565b82935050505092915050565b5f805f604184510361050e575f805f602087015192506040870151915060608701515f1a905061050088828585610685565b95509550955050505061051c565b5f600285515f1b9250925092505b9250925092565b5f60038111156105365761053561096f565b5b8260038111156105495761054861096f565b5b031561068157600160038111156105635761056261096f565b5b8260038111156105765761057561096f565b5b036105ad576040517ff645eedf00000000000000000000000000000000000000000000000000000000815260040160405180910390fd5b600260038111156105c1576105c061096f565b5b8260038111156105d4576105d361096f565b5b0361061857805f1c6040517ffce698f700000000000000000000000000000000000000000000000000000000815260040161060f91906109b4565b60405180910390fd5b60038081111561062b5761062a61096f565b5b82600381111561063e5761063d61096f565b5b0361068057806040517fd78bce0c00000000000000000000000000000000000000000000000000000000815260040161067791906109dc565b60405180910390fd5b5b5050565b5f805f7f7fffffffffffffffffffffffffffffff5d576e7357a4501ddfe92f46681b20a0845f1c11156106c1575f600385925092509250610762565b5f6001888888886040515f81526020016040526040516106e49493929190610a10565b6020604051602081039080840390855afa158015610704573d5f803e3d5ffd5b5050506020604051035190505f73ffffffffffffffffffffffffffffffffffffffff168173ffffffffffffffffffffffffffffffffffffffff1603610755575f60015f801b93509350935050610762565b805f805f1b935093509350505b9450945094915050565b5f80fd5b5f80fd5b5f819050919050565b61078681610774565b8114610790575f80fd5b50565b5f813590506107a18161077d565b92915050565b5f80fd5b5f80fd5b5f80fd5b5f8083601f8401126107c8576107c76107a7565b5b8235905067ffffffffffffffff8111156107e5576107e46107ab565b5b602083019150836001820283011115610801576108006107af565b5b9250929050565b5f67ffffffffffffffff82169050919050565b61082481610808565b811461082e575f80fd5b50565b5f8135905061083f8161081b565b92915050565b5f805f806060858703121561085d5761085c61076c565b5b5f61086a87828801610793565b945050602085013567ffffffffffffffff81111561088b5761088a610770565b5b610897878288016107b3565b935093505060406108aa87828801610831565b91505092959194509250565b5f602082840312156108cb576108ca61076c565b5b5f6108d884828501610793565b91505092915050565b5f73ffffffffffffffffffffffffffffffffffffffff82169050919050565b5f61090a826108e1565b9050919050565b61091a81610900565b82525050565b61092981610808565b82525050565b5f6040820190506109425f830185610911565b61094f6020830184610920565b9392505050565b5f6020820190506109695f830184610920565b92915050565b7f4e487b71000000000000000000000000000000000000000000000000000000005f52602160045260245ffd5b5f819050919050565b6109ae8161099c565b82525050565b5f6020820190506109c75f8301846109a5565b92915050565b6109d681610774565b82525050565b5f6020820190506109ef5f8301846109cd565b92915050565b5f60ff82169050919050565b610a0a816109f5565b82525050565b5f608082019050610a235f8301876109cd565b610a306020830186610a01565b610a3d60408301856109cd565b610a4a60608301846109cd565b9594505050505056fea2646970667358221220bda187f2f61b9137d49d006bf90066ec3ceb76beaec27aedd49bc4af49aa459964736f6c63430008180033",
  "linkReferences": {},
  "deployedLinkReferences": {},
  "immutableReferences": {},
  "inputSourceName": "project/contracts/MessageIntegrity.sol",
  "buildInfoId": "solc-0_8_24-e99ab4f70ba8921f5d9b2bcf9c36d24ad32e7394"
}