{
  "_format": "hh3-artifact-1",
  "contractName": "MessageIntegrity",
  "sourceName": "contracts/MessageIntegrity.sol",
  "abi": [
    {
      "inputs": [],
      "name": "ECDSAInvalidSignature",
      "type": "error"
    },
    {
      "inputs": [
        {
          "internalType": "uint256",
          "name": "length",
          "type": "uint256"
        }
      ],
      "name": "ECDSAInvalidSignatureLength",
      "type": "error"
    },
    {
      "inputs": [
        {
          "internalType": "bytes32",
          "name": "s",
          "type": "bytes32"
        }
      ],
      "name": "ECDSAInvalidSignatureS",
      "type": "error"
    },
    {
      "anonymous": false,
      "inputs": [
        {
          "indexed": true,
          "internalType": "bytes32",
          "name": "hash",
          "type": "bytes32"
        },
        {
          "indexed": true,
          "internalType": "address",
          "name": "recorder",
          "type": "address"
        },
        {
          "indexed": false,
          "internalType": "uint64",
          "name": "timestamp",
          "type": "uint64"
        }
      ],
      "name": "DigestRecorded",
      "type": "event"
    },
    {
      "inputs": [
        {
          "internalType": "bytes32",
          "name": "hash",
          "type": "bytes32"
        }
      ],
      "name": "getRecord",
      "outputs": [
        {
          "internalType": "address",
          "name": "recorder",
          "type": "address"
        },
        {
          "internalType": "uint256",
          "name": "timestamp",
          "type": "uint256"
        }
      ],
      "stateMutability": "view",
      "type": "function"
    },
    {
      "inputs": [
        {
          "internalType": "bytes32",
          "name": "hash",
          "type": "bytes32"
        },
        {
          "internalType": "bytes",
          "name": "signature",
          "type": "bytes"
        }
      ],
      "name": "recordDigest",
      "outputs": [],
      "stateMutability": "nonpayable",
      "type": "function"
    }
  ],
  "bytecode": "0x608060405234801561000f575f80fd5b50610ba98061001d5f395ff3fe608060405234801561000f575f80fd5b5060043610610034575f3560e01c8063213681cd14610038578063265c05fa14610069575b5f80fd5b610052600480360381019061004d9190610755565b610085565b6040516100609291906107d7565b60405180910390f35b610083600480360381019061007e919061085f565b61014a565b005b5f805f805f8581526020019081526020015f206040518060400160405290815f82015f9054906101000a900473ffffffffffffffffffffffffffffffffffffffff1673ffffffffffffffffffffffffffffffffffffffff1673ffffffffffffffffffffffffffffffffffffffff1681526020015f820160149054906101000a900467ffffffffffffffff1667ffffffffffffffff1667ffffffffffffffff16815250509050805f015181602001518067ffffffffffffffff1690509250925050915091565b5f801b830361018e576040517f08c379a000000000000000000000000000000000000000000000000000000000815260040161018590610916565b60405180910390fd5b5f82829050116101d3576040517f08c379a00000000000000000000000000000000000000000000000000000000081526004016101ca9061097e565b60405180910390fd5b5f805f8581526020019081526020015f205f0160149054906101000a900467ffffffffffffffff1667ffffffffffffffff1614610245576040517f08c379a000000000000000000000000000000000000000000000000000000000815260040161023c906109e6565b60405180910390fd5b5f61029b6102528561041f565b84848080601f0160208091040260200160405190810160405280939291908181526020018383808284375f81840152601f19601f82011690508083019250505050505050610452565b90503373ffffffffffffffffffffffffffffffffffffffff168173ffffffffffffffffffffffffffffffffffffffff161461030b576040517f08c379a000000000000000000000000000000000000000000000000000000000815260040161030290610a4e565b60405180910390fd5b5f42905060405180604001604052803373ffffffffffffffffffffffffffffffffffffffff1681526020018267ffffffffffffffff168152505f808781526020019081526020015f205f820151815f015f6101000a81548173ffffffffffffffffffffffffffffffffffffffff021916908373ffffffffffffffffffffffffffffffffffffffff1602179055506020820151815f0160146101000a81548167ffffffffffffffff021916908367ffffffffffffffff1602179055509050503373ffffffffffffffffffffffffffffffffffffffff16857fd57f32dc42f3f77b3986a4d2d23d3bce00da3128985fc6ab50061f177f35cf3d836040516104109190610a8e565b60405180910390a35050505050565b5f7f19457468657265756d205369676e6564204d6573736167653a0a3332000000005f5281601c52603c5f209050919050565b5f805f80610460868661047c565b92509250925061047082826104d1565b82935050505092915050565b5f805f60418451036104bc575f805f602087015192506040870151915060608701515f1a90506104ae88828585610633565b9550955095505050506104ca565b5f600285515f1b9250925092505b9250925092565b5f60038111156104e4576104e3610aa7565b5b8260038111156104f7576104f6610aa7565b5b031561062f576001600381111561051157610510610aa7565b5b82600381111561052457610523610aa7565b5b0361055b576040517ff645eedf00000000000000000000000000000000000000000000000000000000815260040160405180910390fd5b6002600381111561056f5761056e610aa7565b5b82600381111561058257610581610aa7565b5b036105c657805f1c6040517ffce698f70000000000000000000000000000000000000000000000000000000081526004016105bd9190610ad4565b60405180910390fd5b6003808111156105d9576105d8610aa7565b5b8260038111156105ec576105eb610aa7565b5b0361062e57806040517fd78bce0c0000000000000000000000000000000000000000000000000000000081526004016106259190610afc565b60405180910390fd5b5b5050565b5f805f7f7fffffffffffffffffffffffffffffff5d576e7357a4501ddfe92f46681b20a0845f1c111561066f575f600385925092509250610710565b5f6001888888886040515f81526020016040526040516106929493929190610b30565b6020604051602081039080840390855afa1580156106b2573d5f803e3d5ffd5b5050506020604051035190505f73ffffffffffffffffffffffffffffffffffffffff168173ffffffffffffffffffffffffffffffffffffffff1603610703575f60015f801b93509350935050610710565b805f805f1b935093509350505b9450945094915050565b5f80fd5b5f80fd5b5f819050919050565b61073481610722565b811461073e575f80fd5b50565b5f8135905061074f8161072b565b92915050565b5f6020828403121561076a5761076961071a565b5b5f61077784828501610741565b91505092915050565b5f73ffffffffffffffffffffffffffffffffffffffff82169050919050565b5f6107a982610780565b9050919050565b6107b98161079f565b82525050565b5f819050919050565b6107d1816107bf565b82525050565b5f6040820190506107ea5f8301856107b0565b6107f760208301846107c8565b9392505050565b5f80fd5b5f80fd5b5f80fd5b5f8083601f84011261081f5761081e6107fe565b5b8235905067ffffffffffffffff81111561083c5761083b610802565b5b60208301915083600182028301111561085857610857610806565b5b9250929050565b5f805f604084860312156108765761087561071a565b5b5f61088386828701610741565b935050602084013567ffffffffffffffff8111156108a4576108a361071e565b5b6108b08682870161080a565b92509250509250925092565b5f82825260208201905092915050565b7f486173682063616e6e6f7420626520656d7074790000000000000000000000005f82015250565b5f6109006014836108bc565b915061090b826108cc565b602082019050919050565b5f6020820190508181035f83015261092d816108f4565b9050919050565b7f5369676e61747572652063616e6e6f7420626520656d707479000000000000005f82015250565b5f6109686019836108bc565b915061097382610934565b602082019050919050565b5f6020820190508181035f8301526109958161095c565b9050919050565b7f4861736820616c7265616479207265636f7264656400000000000000000000005f82015250565b5f6109d06015836108bc565b91506109db8261099c565b602082019050919050565b5f6020820190508181035f8301526109fd816109c4565b9050919050565b7f5369676e617475726520646f6573206e6f74206d617463682063616c6c6572005f82015250565b5f610a38601f836108bc565b9150610a4382610a04565b602082019050919050565b5f6020820190508181035f830152610a6581610a2c565b9050919050565b5f67ffffffffffffffff82169050919050565b610a8881610a6c565b82525050565b5f602082019050610aa15f830184610a7f565b92915050565b7f4e487b71000000000000000000000000000000000000000000000000000000005f52602160045260245ffd5b5f602082019050610ae75f8301846107c8565b92915050565b610af681610722565b82525050565b5f602082019050610b0f5f830184610aed565b92915050565b5f60ff82169050919050565b610b2a81610b15565b82525050565b5f608082019050610b435f830187610aed565b610b506020830186610b21565b610b5d6040830185610aed565b610b6a6060830184610aed565b9594505050505056fea2646970667358221220bd3c5425bf5edf1e4a52f038d771dcd0a07edd939e6bda9eaebe11602d7e55f964736f6c63430008180033",
  "linkReferences": {},
  "deployedLinkReferences": {},
  "immutableReferences": {},
  "inputSourceName": "project/contracts/MessageIntegrity.sol",
  "buildInfoId": "solc-0_8_24-a13061e0b176f60767fa596c3e7b5aafbb56d83f"
}