{
  "_format": "hh3-artifact-1",
  "contractName": "MessageIntegrity",
  "sourceName": "contracts/MessageIntegrity.sol",
  "abi": [
    {
      "inputs": [],
      "name": "ECDSAInvalidSignature",
      "type": "error"
    },
    {
      "inputs": [
        {
          "internalType": "uint256",
          "name": "length",
          "type": "uint256"
        }
      ],
      "name": "ECDSAInvalidSignatureLength",
      "type": "error"
    },
    {
      "inputs": [
        {
          "internalType": "bytes32",
          "name": "s",
          "type": "bytes32"
        }
      ],
      "name": "ECDSAInvalidSignatureS",
      "type": "error"
    },
    {
      "anonymous": false,
      "inputs": [
        {
          "indexed": true,
          "internalType": "bytes32",
          "name": "hash",
          "type": "bytes32"
        },
        {
          "indexed": true,
          "internalType": "address",
          "name": "recorder",
          "type": "address"
        },
        {
          "indexed": false,
          "internalType": "uint64",
          "name": "timestamp",
          "type": "uint64"
        }
      ],
      "name": "DigestRecorded",
      "type": "event"
    },
    {
      "inputs": [
        {
          "internalType": "bytes32",
          "name": "hash",
          "type": "bytes32"
        }
      ],
      "name": "getRecord",
      "outputs": [
        {
          "internalType": "address",
          "name": "recorder",
          "type": "address"
        },
        {
          "internalType": "uint256",
          "name": "timestamp",
          "type": "uint256"
        }
      ],
      "stateMutability": "view",
      "type": "function"
    },
    {
      "inputs": [
        {
          "internalType": "bytes32",
          "name": "hash",
          "type": "bytes32"
        },
        {
          "internalType": "bytes",
          "name": "signature",
          "type": "bytes"
        },
        {
          "internalType": "uint64",
          "name": "timestamp",
          "type": "uint64"
        }
      ],
      "name": "recordDigest",
      "outputs": [],
      "stateMutability": "nonpayable",
      "type": "function"
    }
  ],
  "bytecode": "0x608060405234801561000f575f80fd5b50610d728061001d5f395ff3fe608060405234801561000f575f80fd5b5060043610610034575f3560e01c8063146e62a014610038578063213681cd14610054575b5f80fd5b610052600480360381019061004d9190610888565b610085565b005b61006e600480360381019061006991906108f9565b6103ef565b60405161007c92919061097b565b60405180910390f35b5f801b84036100c9576040517f08c379a00000000000000000000000000000000000000000000000000000000081526004016100c0906109fc565b60405180910390fd5b5f838390501161010e576040517f08c379a000000000000000000000000000000000000000000000000000000000815260040161010590610a64565b60405180910390fd5b5f8167ffffffffffffffff161161015a576040517f08c379a000000000000000000000000000000000000000000000000000000000815260040161015190610acc565b60405180910390fd5b428167ffffffffffffffff1611156101a7576040517f08c379a000000000000000000000000000000000000000000000000000000000815260040161019e90610b5a565b60405180910390fd5b5f805f8681526020019081526020015f205f0160149054906101000a900467ffffffffffffffff1667ffffffffffffffff1614610219576040517f08c379a000000000000000000000000000000000000000000000000000000000815260040161021090610bc2565b60405180910390fd5b5f61026f610226866104b4565b85858080601f0160208091040260200160405190810160405280939291908181526020018383808284375f81840152601f19601f820116905080830192505050505050506104e7565b90503373ffffffffffffffffffffffffffffffffffffffff168173ffffffffffffffffffffffffffffffffffffffff16146102df576040517f08c379a00000000000000000000000000000000000000000000000000000000081526004016102d690610c2a565b60405180910390fd5b60405180604001604052803373ffffffffffffffffffffffffffffffffffffffff1681526020018367ffffffffffffffff168152505f808781526020019081526020015f205f820151815f015f6101000a81548173ffffffffffffffffffffffffffffffffffffffff021916908373ffffffffffffffffffffffffffffffffffffffff1602179055506020820151815f0160146101000a81548167ffffffffffffffff021916908367ffffffffffffffff1602179055509050503373ffffffffffffffffffffffffffffffffffffffff16857fd57f32dc42f3f77b3986a4d2d23d3bce00da3128985fc6ab50061f177f35cf3d846040516103e09190610c57565b60405180910390a35050505050565b5f805f805f8581526020019081526020015f206040518060400160405290815f82015f9054906101000a900473ffffffffffffffffffffffffffffffffffffffff1673ffffffffffffffffffffffffffffffffffffffff1673ffffffffffffffffffffffffffffffffffffffff1681526020015f820160149054906101000a900467ffffffffffffffff1667ffffffffffffffff1667ffffffffffffffff16815250509050805f015181602001518067ffffffffffffffff1690509250925050915091565b5f7f19457468657265756d205369676e6564204d6573736167653a0a3332000000005f5281601c52603c5f209050919050565b5f805f806104f58686610511565b9250925092506105058282610566565b82935050505092915050565b5f805f6041845103610551575f805f602087015192506040870151915060608701515f1a9050610543888285856106c8565b95509550955050505061055f565b5f600285515f1b9250925092505b9250925092565b5f600381111561057957610578610c70565b5b82600381111561058c5761058b610c70565b5b03156106c457600160038111156105a6576105a5610c70565b5b8260038111156105b9576105b8610c70565b5b036105f0576040517ff645eedf00000000000000000000000000000000000000000000000000000000815260040160405180910390fd5b6002600381111561060457610603610c70565b5b82600381111561061757610616610c70565b5b0361065b57805f1c6040517ffce698f70000000000000000000000000000000000000000000000000000000081526004016106529190610c9d565b60405180910390fd5b60038081111561066e5761066d610c70565b5b82600381111561068157610680610c70565b5b036106c357806040517fd78bce0c0000000000000000000000000000000000000000000000000000000081526004016106ba9190610cc5565b60405180910390fd5b5b5050565b5f805f7f7fffffffffffffffffffffffffffffff5d576e7357a4501ddfe92f46681b20a0845f1c1115610704575f6003859250925092506107a5565b5f6001888888886040515f81526020016040526040516107279493929190610cf9565b6020604051602081039080840390855afa158015610747573d5f803e3d5ffd5b5050506020604051035190505f73ffffffffffffffffffffffffffffffffffffffff168173ffffffffffffffffffffffffffffffffffffffff1603610798575f60015f801b935093509350506107a5565b805f805f1b935093509350505b9450945094915050565b5f80fd5b5f80fd5b5f819050919050565b6107c9816107b7565b81146107d3575f80fd5b50565b5f813590506107e4816107c0565b92915050565b5f80fd5b5f80fd5b5f80fd5b5f8083601f84011261080b5761080a6107ea565b5b8235905067ffffffffffffffff811115610828576108276107ee565b5b602083019150836001820283011115610844576108436107f2565b5b9250929050565b5f67ffffffffffffffff82169050919050565b6108678161084b565b8114610871575f80fd5b50565b5f813590506108828161085e565b92915050565b5f805f80606085870312156108a05761089f6107af565b5b5f6108ad878288016107d6565b945050602085013567ffffffffffffffff8111156108ce576108cd6107b3565b5b6108da878288016107f6565b935093505060406108ed87828801610874565b91505092959194509250565b5f6020828403121561090e5761090d6107af565b5b5f61091b848285016107d6565b91505092915050565b5f73ffffffffffffffffffffffffffffffffffffffff82169050919050565b5f61094d82610924565b9050919050565b61095d81610943565b82525050565b5f819050919050565b61097581610963565b82525050565b5f60408201905061098e5f830185610954565b61099b602083018461096c565b9392505050565b5f82825260208201905092915050565b7f486173682063616e6e6f7420626520656d7074790000000000000000000000005f82015250565b5f6109e66014836109a2565b91506109f1826109b2565b602082019050919050565b5f6020820190508181035f830152610a13816109da565b9050919050565b7f5369676e61747572652063616e6e6f7420626520656d707479000000000000005f82015250565b5f610a4e6019836109a2565b9150610a5982610a1a565b602082019050919050565b5f6020820190508181035f830152610a7b81610a42565b9050919050565b7f54696d657374616d702063616e6e6f74206265207a65726f00000000000000005f82015250565b5f610ab66018836109a2565b9150610ac182610a82565b602082019050919050565b5f6020820190508181035f830152610ae381610aaa565b9050919050565b7f54696d657374616d702063616e6e6f7420626520696e207468652066757475725f8201527f6500000000000000000000000000000000000000000000000000000000000000602082015250565b5f610b446021836109a2565b9150610b4f82610aea565b604082019050919050565b5f6020820190508181035f830152610b7181610b38565b9050919050565b7f4861736820616c7265616479207265636f7264656400000000000000000000005f82015250565b5f610bac6015836109a2565b9150610bb782610b78565b602082019050919050565b5f6020820190508181035f830152610bd981610ba0565b9050919050565b7f5369676e617475726520646f6573206e6f74206d617463682063616c6c6572005f82015250565b5f610c14601f836109a2565b9150610c1f82610be0565b602082019050919050565b5f6020820190508181035f830152610c4181610c08565b9050919050565b610c518161084b565b82525050565b5f602082019050610c6a5f830184610c48565b92915050565b7f4e487b71000000000000000000000000000000000000000000000000000000005f52602160045260245ffd5b5f602082019050610cb05f83018461096c565b92915050565b610cbf816107b7565b82525050565b5f602082019050610cd85f830184610cb6565b92915050565b5f60ff82169050919050565b610cf381610cde565b82525050565b5f608082019050610d0c5f830187610cb6565b610d196020830186610cea565b610d266040830185610cb6565b610d336060830184610cb6565b9594505050505056fea26469706673582212202093773870a830bf138e6aac0e97ce16fc19dc095a84dcb99b2028dc73b9a21264736f6c63430008180033",
  "linkReferences": {},
  "deployedLinkReferences": {},
  "immutableReferences": {},
  "inputSourceName": "project/contracts/MessageIntegrity.sol",
  "buildInfoId": "solc-0_8_24-f2928538cef3d8ed1185e22944e9e21ea139765d"
}